:100000000C944E010C947F010C947F010C947F01A1
:100010000C947F010C947F010C947F010C947F0160
:100020000C947F010C947F010C947F010C947F0150
:100030000C947F010C947F010C947F010C947F0140
:100040000C947F010C947F010C947F010C947F0130
:100050000C947F010C947F010C947F010C949E0AF8
:100060000C947F010C94CE040C94A4040C947F0196
:100070000C947F010C947F010C947F010C947F0100
:100080000C947F010C947F010C947F010C947F01F0
:100090000C947F010C947F010C947F010C947F01E0
:1000A0000C947F010C947F010C947F010C947F01D0
:1000B0000C947F010C947F010C947F010C947F01C0
:1000C0000C947F010C947F010C947F010C947F01B0
:1000D0000C947F010C947F010C947F010C947F01A0
:1000E0000C947F01E508E808D708DB08E1081F0940
:1000F000EC08F008F608FA08FE08040908090C09DB
:100100001F09120916091A090C94FA080C94E5083B
:100110000C94FE080C94F0080C941F090C94CB0E60
:100120000C9481010C94CE010C9416090C94C0011E
:100130000C94AC010C9404090C94A7020C940809CB
:100140000C9405060C94F6080C9405020C941A09FC
:100150000C94EC080C94DB080C94B70E0C94D708A4
:100160000C9454050C94E1080C944C020C94120964
:100170000C94E8080C940C090000200023002600D1
:1001800029002C002F0032000001000003010601AD
:10019000090100000A0B02090C0D0E0807030401F7
:1001A000000000000000000000000000000000004F
:1001B000000000000000000000000000000012111C
:1001C000100000000000000000000000000000001F
:1001D00000000000000000000000220025002800B0
:1001E0002B002E003100340002010000050108013F
:1001F0000B0100002100240027002A002D00300000
:10020000330001010000040107010A01050505058D
:10021000070508080808020202020A0A080804047E
:1002200004040101010101010101030303030303AC
:100230000303040707070C0C0C0C0C0C0C0C02023B
:10024000020206060606060606060B0B0B0B0B0B38
:100250000B0B0102102020080810204010204080C5
:10026000020102010804020101020408102040807A
:100270008040201008040201800402018040201008
:100280000804020108040201010204081020408051
:100290000102040810204080CB0EB70E11241FBEAF
:1002A000CFEFD1E2DEBFCDBF00E00CBF24E0AAE279
:1002B000B3E001C01D92A032B207E1F713E0A0E065
:1002C000B2E0E0EEF3E200E00BBF02C007900D9257
:1002D000AA32B107D9F711E0CDE4D1E000E006C0C1
:1002E00021970109802FFE010E94860FCC34D1078F
:1002F00080E00807A9F70E94070B0C94DE110C940C
:100300000000CF92DF92EF92FF920F931F93CF9353
:10031000DF936C017A018B01C0E0D0E0CE15DF05E0
:1003200089F0D8016D918D01D601ED91FC9101907C
:10033000F081E02DC6011995892B11F47E0102C0D0
:100340002196ECCFC701DF91CF911F910F91FF90C4
:10035000EF90DF90CF900895FC01918D828D9817DA
:1003600061F0828DDF01A80FB11D5D968C91928D99
:100370009F5F9F73928F90E008958FEF9FEF089596
:10038000FC01918D828D981731F0828DE80FF11D5F
:10039000858D90E008958FEF9FEF0895FC01918D7A
:1003A000228D892F90E0805C9F4F821B91098F7373
:1003B0009927089587E493E00E94CE0121E0892BDC
:1003C00009F420E0822F0895FC01848DDF01A80F3D
:1003D000B11DA35ABF4F2C91848D90E001968F736D
:1003E0009927848FA689B7892C93A089B1898C918C
:1003F00080648C93938D848D981306C00288F38952
:10040000E02D80818F7D80830895EF92FF920F937E
:100410001F93CF93DF93EC0181E0888F9B8D8C8DB0
:10042000981305C0E889F989808185FD24C0F62EDE
:100430000B8D10E00F5F1F4F0F731127E02E8C8D77
:10044000E8120CC00FB607FCFACFE889F989808161
:1004500085FFF5CFCE010E94E401F1CF8B8DFE0127
:10046000E80FF11DE35AFF4FF0820B8FEA89FB89F9
:100470008081806207C0EE89FF896083E889F989FD
:1004800080818064808381E090E0DF91CF911F9133
:100490000F91FF90EF900895CF93DF93EC01888D3B
:1004A0008823C9F0EA89FB89808185FD05C0A88978
:1004B000B9898C9186FD0FC00FB607FCF5CF8081FE
:1004C00085FFF2CFA889B9898C9185FFEDCFCE0148
:1004D0000E94E401E7CFDF91CF91089580E090E0A2
:1004E000892B21F00E94DA01811125C080E090E083
:1004F000892B41F080E090E0892B21F00E940000E0
:1005000081111CC080E090E0892B41F080E090E0F8
:10051000892B21F00E940000811113C080E090E03F
:10052000892BA1F080E090E0892B81F00E940000EF
:1005300081110AC008950E940000D8CF0E940000D7
:10054000E1CF0E940000EACF0C9400000895DC0186
:10055000ED91FD91BD010190F081E02D40E01995F4
:1005600091E0811190E0892F0895FC0180819181B3
:100570000C9437100F931F93CF93DF93EC01888176
:100580009981009729F02A813B812617370788F443
:100590008B016F5F7F4F0E94CF10009761F09983AE
:1005A00088831B830A832C813D81232B11F4FC015A
:1005B000108281E001C080E0DF91CF911F910F9107
:1005C0000895EF92FF920F931F93CF93DF93FB0158
:1005D00024813581E080F180FC0104811581E114E2
:1005E000F10411F480E017C02115310599F0EC01F8
:1005F000020F131FB8010E94BA02882399F32881C1
:1006000039818C819D81B701820F931F0E94D71180
:100610001D830C8381E0DF91CF911F910F91FF909B
:10062000EF900895EF92FF920F931F93CF93DF9374
:10063000EC017B018A01BA010E94BA02288139814A
:1006400081110DC02115310519F0C9010E94371023
:10065000198218821D821C821B821A8206C01D8389
:100660000C83B701C9010E94D711CE01DF91CF9150
:100670001F910F91FF90EF9008950F931F938FB7E5
:10068000F894409143035091440360914503709165
:1006900046038FBF2FB7F894809143039091440392
:1006A000A0914503B09146032FBF009137031091ED
:1006B00038032091390330913A03BC01CD01601B0E
:1006C000710B820B930B28EE33E040E050E00E9468
:1006D000640F2C3331052CF430932B0320932A0321
:1006E000B4C010922B0310922A038091350390918D
:1006F0003603019690933603809335032FB7F89411
:100700008091430390914403A0914503B091460327
:100710002FBF8093370390933803A0933903B0938E
:100720003A038091350390913603CC970CF48DC039
:100730008091330390913403019690933403809316
:100740003303109236031092350348970CF47DC0A2
:1007500020913103309132032F5F3F4F30933203AA
:1007600020933103109234031092330380912F03AE
:1007700090913003AC014D7F4130510581F08530BF
:10078000910569F0AC01475051094230510538F0EC
:100790008A30910521F08C309105F9F494C0203213
:1007A00031050CF452C021E030E030933203209345
:1007B000310301969093300380932F030D970CF42F
:1007C00044C080912D0390912E03019690932E03A7
:1007D00080932D0381E090E034C08230910539F59B
:1007E000E0912D03F0912E03CF0160E971E00E94AA
:1007F000500F892B61F42E3131053CF181E090E0FE
:10080000909332038093310383E090E01AC0CF01CC
:1008100083709927892B39F4CF0164E670E00E9438
:10082000500F892B41F72D31310544F70EC02F3180
:1008300031055CF021E030E0309332032093310346
:1008400001969093300380932F0380913103909110
:1008500032030E94AD0880E292E00E942408809159
:100860002F03909130030E94AD0880E292E00E9435
:10087000240880912D0390912E030E94AD088BE9EE
:1008800092E00E94240880913303909134030E94E7
:10089000AD0883E592E00E94240880913503909191
:1008A00036030E94AD0883E592E00E9424088091FF
:1008B0002A0390912B030E94AD0887E293E01F91D9
:1008C0000F910C942408203231050CF4BECF81E046
:1008D00090E0909332038093310373CFCF93DF93F3
:1008E000EC016115710559F0FB0101900020E9F759
:1008F0003197AF01461B570B0E9412030CC0888131
:100900009981009711F00E943710198218821D8278
:100910001C821B821A82CE01DF91CF910895FC01C7
:100920001182108213821282158214826115710560
:1009300051F0FB0101900020E9F73197AF01461B10
:10094000570B0C94120308951F920F920FB60F923B
:1009500011240BB60F922F933F934F935F936F9396
:100960007F938F939F93AF93BF93EF93FF9387E40E
:1009700093E00E94E401FF91EF91BF91AF919F91AD
:100980008F917F916F915F914F913F912F910F9038
:100990000BBE0F900FBE0F901F9018951F920F92D5
:1009A0000FB60F9211240BB60F922F938F939F9334
:1009B000EF93FF93E0915703F09158038081E0910A
:1009C0005D03F0915E0382FD12C09081809160030F
:1009D0008F5F8F7320916103821751F0E091600364
:1009E000F0E0E95BFC4F958F8093600301C080814C
:1009F000FF91EF919F918F912F910F900BBE0F90D0
:100A00000FBE0F901F90189508958EBD00000DB475
:100A100007FEFDCF8EB508958CBD9DBD08951F9333
:100A2000CF93DF93EC01162F8A899B890E940C05D6
:100A300060E08E850E942009812F80680E94050554
:100A400080E00E940505182F61E08E850E94200934
:100A5000812FDF91CF911F910895EF92FF921F9305
:100A6000CF93DF931F92CDB7DEB77C01162FFC0129
:100A70008289938949830E940C0560E0F70186858D
:100A80000E942009812F0E9405054981842F0E9420
:100A9000050561E0F70186850F90DF91CF911F91E9
:100AA000FF90EF900C942009AF92BF92CF92EF92FB
:100AB000FF920F931F93CF93DF9300D01F921F924B
:100AC000CDB7DEB75C0182E08D8340E064E2C50112
:100AD0000E942D0540E066E2C5010E942D0546E218
:100AE00068E4C5010E942D0586E28C838D818230E9
:100AF00038F16CE1C5010E940F05482F4F776CE17A
:100B0000C5010E942D0587E08B83C12CCE01039681
:100B10007C018E010B5F1F4F9E012F5F3F4F41E015
:100B2000BE016C5F7F4FC5010E948D0981110BC012
:100B30008D81823039F481E09B81911104C008C01D
:100B400084E001C081E091E0823019F090E001C0C2
:100B500091E0892F0F900F900F900F900F90DF91E1
:100B6000CF911F910F91FF90EF90CF90BF90AF90DA
:100B70000895CF92DF92EF92FF920F931F93CF933E
:100B8000DF93EC016B01142F790140E062E00E94D9
:100B90002D0544E06AE0CE010E942D0540E864E1A5
:100BA000CE010E942D05A601612FCE010E945009A1
:100BB00043E062E0CE010E942D0508E813E16AE0FF
:100BC000CE010E940F0582FF13C040E062E0CE011B
:100BD0000E942D0564E4CE010E940F05F701808379
:100BE00062E4CE010E940F05F701818380E004C01A
:100BF0000150110921F783E0DF91CF911F910F91EF
:100C0000FF90EF90DF90CF9008952F923F924F92F8
:100C10005F926F927F928F929F92AF92BF92CF928C
:100C2000DF92EF92FF920F931F93CF93DF93CDB795
:100C3000DEB72D970FB6F894DEBF0FBECDBF41359E
:100C400008F013C1342E4B015C016CE10E940F05CA
:100C5000482F4F776CE1C5010E942D052224239473
:100C600044244394512C22E0221691F033E02316C1
:100C7000E1F041E02412FDC083E989833320D1F003
:100C800081E0F4019081953008F480E0D12C17C008
:100C900085E98983332081F081E0F40190819830E7
:100CA00008F480E043E0D42E0AC087E9898336E067
:100CB000D32E04C0D12C02C023E0D22E80E0532DCD
:100CC000F8EFDF9E500D112457FD50E0882321F0EE
:100CD00098E89B8343E001C042E021E0952F9770A4
:100CE00009F420E0952F959595959595290F29F470
:100CF000882309F498C0585F96C0811102C094E01F
:100D000001C093E0291708F4922F20E030E06D2D08
:100D100070E0E42FE20FA1E0B0E0AC0FBD1FAE0F1A
:100D2000B11DF901E60FF71FE80DF91DE181EC9304
:100D30002F5F3F4F291768F3DBCF8111E6C0503298
:100D40000CF099C050E220E72A839C818B8189278F
:100D50009D8189279E8189278F839E01285F3F4F30
:100D600047E0BE016F5F7F4FC5015D870E94B905F7
:100D70005D858111CAC01B8633E03A87CE01079694
:100D80003C0179E0CB844C2D4295407F4C0D6AE1CB
:100D9000C5015D877C870E942D059E01255F3F4F21
:100DA00079018E01065F1F4F93017C85472FBE019D
:100DB0006F5F7F4FC5010E948D095D85823009F00C
:100DC000BCCF6CE1C5010E940F055D8585FD4FC05C
:100DD0008F7109F480E2282F30E0452F550F550B15
:100DE000421753070CF045C0582FC901019787706F
:100DF000992725952595259531E0320F21E000971B
:100E000009F420E0230FE1E0F0E0EC0FFD1FE20F1A
:100E1000F11D920102C0220F331F8A95E2F7C9012A
:100E20009081892B808350320CF08DCF952F977055
:100E30009B87252F25952595259582E0820F392FB3
:100E4000E0E18E9F300D11243A8371E0911101C0D1
:100E500070E0780F66246394712C6C0E7D1E680E12
:100E6000711C87E0821B8A878DCF86E04EC082E0AE
:100E70004CC085E04AC08B81883809F043C033E01C
:100E800023E080E090E06D2D70E0FC01E60FF71F9D
:100E9000E80DF91D432F480FA1E0B0E0AC0FBD1FD6
:100EA000A40FB11D4C9141830196821770F38A857E
:100EB000833021F58B85811121C09E012D5F3F4F2D
:100EC00041E0B301C5010E94B90581111EC09B819B
:100ED000F3018181981314C09C818281981310C002
:100EE000808182FF02C02394BECEF4018387822DCD
:100EF000880F280E2394208280E007C081E005C07F
:100F000087E003C032E024E0BCCF2D960FB6F89402
:100F1000DEBF0FBECDBFDF91CF911F910F91FF902C
:100F2000EF90DF90CF90BF90AF909F908F907F9089
:100F30006F905F904F903F902F9008953FB7F89437
:100F40008091180490911904A0911A04B0911B0487
:100F500026B5A89B05C02F3F19F00196A11DB11D14
:100F60003FBFBA2FA92F982F8827820F911DA11D4F
:100F7000B11DBC01CD0142E0660F771F881F991F8C
:100F80004A95D1F70895009769F0FC01019000207F
:100F9000E9F73197AF01481B590BBC0187E493E097
:100FA0000C94810180E090E008950E94B811BF92F6
:100FB000CF92DF92EF92FF920F931F93CF93DF9325
:100FC0006C018B01DB011496CD91DC911597209774
:100FD00029F4E12CF12CC1E0D0E003C0EE24E3942D
:100FE000F12C68E273E0C6010E948F04F80184814D
:100FF0009581E816F906C8F48C179D0708F4EC01F2
:10100000D801ED91FC911197EC0FFD1FB08010827B
:101010006D917C916E0D7F1DC6010E946E04F801DA
:1010200080819181C80FD91FB882C601DF91CF910D
:101030001F910F91FF90EF90DF90CF90BF90089598
:1010400086E293E00C94C3070C94C30790E0FC0184
:10105000EE5AFD4F2491FC01E45FFD4F84918823FB
:1010600099F090E0880F991FFC01EE50FE4FA5917A
:10107000B491FC01E852FE4F859194918FB7F8949A
:10108000EC91E22BEC938FBF08958F929F92AF92D9
:10109000BF920F931F93CF93DF93CDB7DEB7A19786
:1010A0000FB6F894DEBF0FBECDBF19A2423008F4D0
:1010B0004AE08E010F5D1F4F842E912CA12CB12C84
:1010C000A50194010E94640FE62FB901CA010150E5
:1010D0001109EA3014F4E05D01C0E95CD801EC9339
:1010E000232B242B252B61F7C8010E94C307A1964F
:1010F0000FB6F894DEBF0FBECDBFDF91CF911F9129
:101100000F91BF90AF909F908F900895CF92DF92F4
:10111000EF92FF92CF93DF936B017C01E091470345
:10112000F09148030190F081E02D6DE287E493E0B7
:101130001995EC0166277727CB016C197D098E097B
:101140009F094AE00E9445088C0F9D1FDF91CF91B7
:10115000FF90EF90DF90CF900895BC01990F880B1E
:10116000990B97FD0C9486084AE00C944508CF93A0
:10117000DF93FC01448155816081718187E493E0B4
:101180000E948101EC010E9420088C0F9D1FDF91BD
:10119000CF91089590E0FC013197E231F10508F01C
:1011A0004EC08827EE58FF4F8F4F0C94860F8091CA
:1011B00080008F7703C0809180008F7D80938000B6
:1011C000089580918000877FF9CF84B58F7702C022
:1011D00084B58F7D84BD08958091B0008F7703C062
:1011E0008091B0008F7D8093B00008958091900031
:1011F0008F7707C0809190008F7D03C08091900011
:10120000877F8093900008958091A0008F7707C01A
:101210008091A0008F7D03C08091A000877F809384
:10122000A0000895809120018F7707C08091200150
:101230008F7D03C080912001877F809320010895D6
:101240001F93CF93DF93282F30E0F901EE56FE4F26
:101250008491F901EE5AFD4FD491F901E45FFD4FFD
:10126000C491CC23C9F0162F81110E94CA08EC2F1B
:10127000F0E0EE0FFF1FE852FE4FA591B4918FB73B
:10128000F894111105C09C91ED2FE095E92302C05F
:10129000EC91ED2BEC938FBFDF91CF911F910895CF
:1012A000CF92DF92EF92FF920F931F93CF93DF9332
:1012B0001F921F92CDB7DEB78C01F62EFC018289FA
:1012C000938949835A830E940C0560E0F801868562
:1012D0000E94200982E10E9405054981E42EC42E66
:1012E0005A81D52E8C2D8E198F1530F4F6018191EF
:1012F0006F010E940505F6CF61E0F80186850E9426
:1013000020090F900F90DF91CF911F910F91FF90C7
:10131000EF90DF90CF900C9404056F927F928F92A4
:101320009F92AF92BF92CF92DF92EF92FF920F9374
:101330001F93CF93DF93EC014B01D42E5901380159
:10134000E114F10419F0F701808101C080E0182F49
:10135000F0E1CF9E100D112440E062E0CE010E942A
:101360002D054FE768E0CE010E942D0540E864E1BD
:10137000CE010E942D05A4016D2DCE010E945009C1
:10138000412F6AE1CE010E942D054CE062E0CE01C2
:101390000E942D056AE1CE010E940F05482F40688A
:1013A0006AE1CE010E942D0500ED17E068E0CE0154
:1013B0000E940F05982F907339F480FD03C00150EF
:1013C0001109A1F783E071C06CE0CE010E940F0506
:1013D000982E837109F068C0A114B10409F45CC0AF
:1013E0006114710409F458C064E1CE010E940F0534
:1013F000182FF3018081811708F452C01083112344
:1014000009F440C08A899B890E940C0560E08E85A2
:101410000E94200982E90E940505CC20A9F08FEFE7
:1014200090E09C0102C0220F331FCA94E2F76901C9
:1014300082E90E9405058C21C094F5019081C922A2
:10144000C82AC08201E001C000E01150402F50E0E6
:10145000011750F46501C40ED51E82E90E940505EE
:10146000F60180830F5FF2CF8501040F151F80E026
:101470000E940505F801808361E08E850E942009A5
:101480000E94040568E1CE010E940F058770E114F7
:10149000F10411F0F701808393FC04C080E005C0E3
:1014A00084E003C082E001C081E0DF91CF911F9111
:1014B0000F91FF90EF90DF90CF90BF90AF909F90F3
:1014C0008F907F906F9008958F929F92AF92BF926E
:1014D000CF92DF92EF92FF926B017C010E949E07F8
:1014E0004B015C01C114D104E104F104F1F00E944C
:1014F0009E07DC01CB0188199909AA09BB09883E1E
:101500009340A105B10570F321E0C21AD108E108AA
:10151000F10888EE880E83E0981EA11CB11CC1144E
:10152000D104E104F10419F7DDCFFF90EF90DF90D3
:10153000CF90BF90AF909F908F9008951F920F9281
:101540000FB60F9211242F933F938F939F93AF93D6
:10155000BF938091430390914403A0914503B091C0
:1015600046033091170423E0230F2D3720F4019612
:10157000A11DB11D05C026E8230F0296A11DB11DB6
:10158000209317048093430390934403A09345034F
:10159000B09346038091180490911904A0911A0405
:1015A000B0911B040196A11DB11D80931804909366
:1015B0001904A0931A04B0931B04BF91AF919F919B
:1015C0008F913F912F910F900FBE0F901F90189504
:1015D000FC0124813581232B31F421E06115710553
:1015E000A1F0FB0108C0FC018081918161157105AA
:1015F00031F421E0FC018081882339F005C00E948C
:10160000CE1121E0892B09F020E0822F0895CF939D
:10161000DF93CDB7DEB76B970FB6F894DEBF0FBE82
:10162000CDBF789484B5826084BD84B5816084BD6B
:1016300085B5826085BD85B5816085BD80916E0070
:10164000816080936E0010928100809181008260A1
:1016500080938100809181008160809381008091DE
:1016600080008160809380008091B10084608093CD
:10167000B1008091B00081608093B00080919100B2
:1016800082608093910080919100816080939100AD
:10169000809190008160809390008091A100826091
:1016A0008093A1008091A10081608093A10080912E
:1016B000A00081608093A0008091210182608093CE
:1016C000210180912101816080932101809120017D
:1016D00081608093200180917A00846080937A00F9
:1016E00080917A00826080937A0080917A00816094
:1016F00080937A0080917A00806880937A001092BB
:10170000C100E0915703F091580382E08083E0919B
:101710005303F09154031082E0915503F091560366
:101720008FEC808310925F03E0915B03F0915C0388
:1017300086E08083E0915903F0915A0380818061B3
:101740008083E0915903F0915A03808188608083FF
:10175000E0915903F0915A03808180688083E09181
:101760005903F0915A0380818F7D80831FB7F894CD
:1017700080912C03811124C0E1E4F2E08491E7E838
:10178000F2E09491E82FF0E0EE0FFF1FEE50FE4FD5
:10179000A591B491EC91E92321F461E085E30E94E5
:1017A000200985E30E9426088CB580618CBD8CB52C
:1017B00080648CBD84E30E94260883E30E9426088F
:1017C00080912C038F5F80932C031FBF80911104A5
:1017D0000E94260861E0809111040E9420098091F6
:1017E00012048F3F69F44FE062E083E094E00E94CE
:1017F0002D0562E370E080E090E00E94640A24C05E
:101800000E9426082091120430E0F901EE56FE4FA6
:101810008491F901EE5AFD4F0491F901E45FFD4F07
:101820001491112309F492C281110E94CA08E12F78
:10183000F0E0EE0FFF1FE858FE4FA591B491EC9138
:10184000E02309F483C2CFCF62E083E094E00E94FA
:101850000F0584FDF9CF40E064E283E094E00E944C
:101860002D0540E066E283E094E00E942D0546E20B
:1018700068E483E094E00E942D0540E864E583E09D
:1018800094E00E942D0549EA66E583E094E00E9419
:101890002D0543E068E583E094E00E942D0548EEC5
:1018A0006AE583E094E00E942D0540E46AE283E06B
:1018B00094E00E942D054DE362E283E094E00E94F3
:1018C0002D0568E283E094E00E940F05982F937045
:1018D000933039F0482F436068E283E094E00E943F
:1018E0002D0585E292E00E9424080E9420081092B3
:1018F0003703109238031092390310923A038CE1A7
:1019000090E0909336038093350380E190E09093CC
:1019100034038093330389E090E090933203809303
:1019200031039093300380932F0381EE97E09093DF
:101930002E0380932D0383E094E00E9454058823B6
:1019400009F401C283E094E00E94A702F82E8823E4
:1019500009F4F9C10E94200888E492E00E9424085A
:1019600068E273E0CE0146960E948F04E12C8091DC
:101970000504E81608F052C00E2D10E00D5F1B4F55
:10198000F8018381803118F08BE992E002C082E295
:1019900092E00E942408F801638170E080E090E00A
:1019A00040E10E944508F8018381803118F06BE91D
:1019B00072E002C062E272E0CE0101960E948F04E2
:1019C000BE016F5F7F4FCE0146960E94E102CE01BD
:1019D00001960E94B502F80183811B861A861D8636
:1019E0001C861F861E8640E1BE016F5F7F4F90E020
:1019F0000E94260FBE016F5F7F4FCE010A960E94A4
:101A00006E04BE01665F7F4FCE0146960E94E102E2
:101A1000CE010A960E94B502E394A9CF0E891F89D0
:101A200001151105C9F4BE016A5E7F4FCE01019612
:101A30000E94D70765E572E0CE0101960E94E80A90
:101A4000182FCE0101960E94B502209141033091DA
:101A5000420311110EC046C0F8018081882319F39A
:101A6000082E000C990B0E94BD11F80181938F0183
:101A7000F3CF232BB1F40E94200881E692E00E946C
:101A8000240884EE93E00E94B7088BE792E00E945E
:101A900024080E943D036CED75E080E090E00E9418
:101AA000640A80914103909142030196909342030E
:101AB0008093410302970CF442C10E94200885E8FC
:101AC00092E00E94240884EE93E00E94B7088DE91A
:101AD00092E00E9424080E943D031092420310925B
:101AE000410327C12130310509F01BC1BE016A5EE7
:101AF0007F4FCE0140960E94D70765EA72E0CE0183
:101B000040960E94E80A81112DC1BE016A5E7F4F96
:101B1000CE010A960E94D70761EB72E0CE010A96C9
:101B20000E94E80A811116C0BE016A5E7F4FCE0195
:101B300001960E94D7076DEB72E0CE0101960E94DC
:101B4000E80AFF24F394811101C0F12CCE01019623
:101B50000E94B502CE010A960E94B502CE014096BF
:101B60000E94B502FF2009F4EAC0BE016A5E7F4F01
:101B7000CE0101960E94D70765EA72E0CE01019678
:101B80000E94E80A182FCE0101960E94B502112387
:101B9000D9F180913F039091400318161906FCF08B
:101BA0009C012F5F3F4F3093400320933F03B901C7
:101BB000032E000C880B990B37FF03C00E94860888
:101BC00003C04AE00E9445080E9420080E942008A5
:101BD00089EC92E00E9424088CEF93E084C00E947C
:101BE000200889ED92E00E9424088CEF93E00E9487
:101BF000B7088DE992E00E9424080E943D031092EC
:101C0000400310923F0395C0BE016A5E7F4FCE0134
:101C100001960E94D70761EB72E0CE0101960E9407
:101C2000E80A182FCE0101960E94B502112371F126
:101C300080913D0390913E031816190694F0019689
:101C400090933E0380933D0386EF93E00E94B70894
:101C50000E94200889EC92E00E94240886EF93E01D
:101C600042C00E94200889ED92E00E94240886EF7D
:101C700093E00E94B7088DE992E00E9424080E9438
:101C80003D0310923E0310923D0353C0BE016A5EB5
:101C90007F4FCE0101960E94D7076DEB72E0CE0117
:101CA00001960E94E80A182FCE0101960E94B50203
:101CB000112309F444C080913B0390913C03181612
:101CC0001906D4F0019690933C0380933B038AEE6F
:101CD00093E00E94B7080E94200889EC92E00E94DD
:101CE00024088AEE93E00E94B7088BE792E00E94F6
:101CF00024080E943D031DC00E94200889ED92E047
:101D00000E9424088AEE93E00E94B7088DE992E0D1
:101D10000E9424080E943D0310923C0310923B0352
:101D200008C00E94200886EE92E00E9424080E94CB
:101D300020086CED75E080E090E00E94640ACE011E
:101D400046960E94B5020E946E02F5CD61E0809138
:101D500012040E94200962E370E080E090E00E949B
:101D6000640A79CDCE0140960E94B502FECE84EE83
:101D700093E00E94B5028AEE93E00E94B50280EFE4
:101D800093E00E94B50286EF93E00E94B5028CEFCB
:101D900093E00C94B502E7E4F3E01382128288EE3C
:101DA00093E0A0E0B0E084839583A683B7838AE0C4
:101DB00092E09183808385EC90E09587848784EC22
:101DC00090E09787868780EC90E0918B808B81EC08
:101DD00090E0938B828B82EC90E0958B848B86ECE9
:101DE00090E0978B868B118E128E138E148EE3E00B
:101DF000F4E08AE192E09183808385E3868785E041
:101E0000878782E094E0918B808B83E5828B138AB5
:101E10006CE073E08CEF93E00E948F046EEF72E051
:101E200086EF93E00E948F0466E073E080EF93E01A
:101E30000E948F046AE173E08AEE93E00E948F04AF
:101E400060E273E084EE93E00C948F04BB27FB0107
:101E50005527AA27880F991FAA1FA41710F0A41BA3
:101E600083955051B9F7A05DAA3308F0A95DA193FD
:101E7000009779F7B111B1931192CB010C94400FF7
:101E8000DC01FC01672F71917723E1F7329704C0E1
:101E90007C916D9370836291AE17BF07C8F308956C
:101EA00097FB072E16F4009407D077FD09D00E9407
:101EB0008E0F07FC05D03EF4909581959F4F0895B5
:101EC000709561957F4F0895A1E21A2EAA1BBB1B46
:101ED000FD010DC0AA1FBB1FEE1FFF1FA217B307F6
:101EE000E407F50720F0A21BB30BE40BF50B661F0C
:101EF000771F881F991F1A9469F7609570958095D0
:101F000090959B01AC01BD01CF010895EE0FFF1F1D
:101F1000881F8BBF0790F691E02D1994AA1BBB1B5D
:101F200051E107C0AA1FBB1FA617B70710F0A61BD9
:101F3000B70B881F991F5A95A9F780959095BC01FA
:101F4000CD010895CF93DF938230910510F482E0A4
:101F500090E0E0911E04F0911F0420E030E0C0E02A
:101F6000D0E0309711F14081518148175907C0F0F6
:101F70004817590761F482819381209719F09B8358
:101F80008A832BC090931F0480931E0426C02115C2
:101F9000310519F04217530718F49A01BE01DF0109
:101FA000EF010280F381E02DDCCF2115310509F12D
:101FB000281B390B2430310590F412968D919C9199
:101FC00013976115710521F0FB019383828304C08F
:101FD00090931F0480931E04FD01329644C0FD01BE
:101FE000E20FF31F81939193225031092D933C937B
:101FF0003AC020911C0430911D04232B41F4209100
:1020000002023091030230931D0420931C0420919E
:102010000002309101022115310541F42DB73EB780
:102020004091040250910502241B350BE0911C04E1
:10203000F0911D04E217F307A0F42E1B3F0B2817A5
:10204000390778F0AC014E5F5F4F2417350748F031
:102050004E0F5F1F50931D0440931C048193919376
:1020600002C0E0E0F0E0CF01DF91CF9108950F933F
:102070001F93CF93DF93009709F48CC0FC01329734
:102080001382128200911E0410911F040115110584
:1020900081F420813181820F931F20911C043091A3
:1020A0001D042817390779F5F0931D04E0931C04EB
:1020B00071C0D80140E050E0AE17BF0750F412964F
:1020C0002D913C911397AD012115310509F1D901ED
:1020D000F3CF9D01DA013383228360817181860F02
:1020E000971F8217930769F4EC0128813981260F25
:1020F000371F2E5F3F4F318320838A819B819383DB
:102100008283452B29F4F0931F04E0931E0442C000
:102110001396FC93EE931297ED01499159919E010C
:10212000240F351FE217F30771F480819181840F2A
:10213000951F029611969C938E938281938113969C
:102140009C938E931297E0E0F0E0D80112968D9167
:102150009C911397009719F0F8018C01F6CF8D919F
:102160009C9198012E5F3F4F820F931F20911C047A
:1021700030911D042817390769F4309729F410921B
:102180001F0410921E0402C01382128210931D04B9
:1021900000931C04DF91CF911F910F9108956F92CE
:1021A0007F928F929F92AF92BF92CF92DF92EF92E7
:1021B000FF920F931F93CF93DF93EC01009789F465
:1021C000CB01DF91CF911F910F91FF90EF90DF90A6
:1021D000CF90BF90AF909F908F907F906F900C9416
:1021E000A20FFC01E60FF71F9C0122503109E217F4
:1021F000F30708F4ACC0D9010D911C911197061793
:102200001707B0F00530110508F49FC0C801049706
:102210008617970708F499C002501109061B170B7F
:10222000019311936D937C93CF010E9437108DC061
:102230005B01A01AB10A4C01800E911EA0911E04F0
:10224000B0911F0440E050E0E12CF12C109709F40C
:102250004AC0A815B905D1F56D907C90119763011E
:1022600082E0C80ED11CCA14DB0480F1A3014A1914
:102270005B096A0182E0C80ED11C1296BC901297CD
:102280001396AC91B5E0CB16D10440F0B282A38393
:1022900051834083D9016D937C930AC00E5F1F4F19
:1022A000C301800F911FF90191838083EB2DFA2FD9
:1022B000E114F10431F0D7011396FC93EE931297D9
:1022C00044C0F0931F04E0931E043FC08D919C9185
:1022D00011974817590708F4AC017D0112960D902B
:1022E000BC91A02DB3CF80911C0490911D04881542
:1022F0009905E1F446175707C8F4809100029091C0
:102300000102009741F48DB79EB7409104025091AD
:102310000502841B950BE817F907C8F4F0931D0418
:10232000E0931C04F901718360830FC0CB010E940C
:10233000A20F7C01009759F0A801BE010E94C511AF
:10234000CE010E943710C70104C0CE0102C080E058
:1023500090E0DF91CF911F910F91FF90EF90DF9070
:10236000CF90BF90AF909F908F907F906F90089587
:1023700081E090E0F8940C94DE119111089581565B
:102380008A5108F4805285580895FB01DC0102C08F
:1023900001900D9241505040D8F70895FB01DC01A7
:1023A0008D91019080190110D9F3990B0895FB01CB
:1023B000DC0101900D920020E1F7089511E0CDE4D9
:1023C000D1E000E006C0802FFE010E94860F21961A
:1023D000011DCE34D10780E00807A9F7F894FFCF9C
:1023E0000000200480000000000005028101CE01F1
:1023F000AC01C0014C020000000005065405A70214
:102400002F002030004170726F78696D65206F2059
:102410007365752063617274616F20646F206C65F1
:1024200069746F722E2E2E00554944206461207409
:102430006167203A00373020423920423820343654
:102440000053656A612042656D2D56696E646F2088
:1024500050726F666573736F722000456E7472619F
:1024600064613A20004174C3A9206D6169732050F2
:10247000726F666573736F7220212120005361694A
:1024800064613A200038322033302035332037332E
:10249000003531203834204345203934003744207A
:1024A00038342035312036460053656A6120426554
:1024B0006D2D56696E646F20004174C3A9206D6153
:1024C00069732121200043617274C3A36F206EC31E
:1024D000A36F206361646173747261646F00476904
:1024E00073656C6C7900434155203A2042696C6CED
:1024F000796672616E6B6C696D0042696C6C790013
:0A2500004B656E696F000D0A0000C4
:00000001FF
